:020000040800F2
:100000000020002035120008B1110008B3110008CB
:1000100000000000000000000000000000000000E0
:10002000000000000000000000000000B511000802
:100030000000000000000000B7110008B91100081E
:100040008512000885120008851200088512000834
:100050008512000885120008851200088512000824
:100060008512000885120008851200088512000814
:10007000851200088512000885120008C5110008C5
:100080008512000885120008000000008512000893
:1000900085120008851200088512000885120008E4
:1000A00085120008851200088512000885120008D4
:1000B0008512000800000000851200080000000002
:1000C00010B5064C2378002B07D1054B002B02D02E
:1000D000044800E000BF0123237010BD0800002089
:1000E00000000000D0120008044B10B5002B03D014
:1000F0000349044800E000BF10BDC04600000000F6
:100100000C000020D0120008002243088B4274D358
:1001100003098B425FD3030A8B4244D3030B8B4208
:1001200028D3030C8B420DD3FF22090212BA030C11
:100130008B4202D31212090265D0030B8B4219D3F2
:1001400000E0090AC30B8B4201D3CB03C01A524112
:10015000830B8B4201D38B03C01A5241430B8B425A
:1001600001D34B03C01A5241030B8B4201D30B0343
:10017000C01A5241C30A8B4201D3CB02C01A52416A
:10018000830A8B4201D38B02C01A5241430A8B422D
:1001900001D34B02C01A5241030A8B4201D30B0216
:1001A000C01A5241CDD2C3098B4201D3CB01C01A30
:1001B000524183098B4201D38B01C01A524143093A
:1001C0008B4201D34B01C01A524103098B4201D328
:1001D0000B01C01A5241C3088B4201D3CB00C01A95
:1001E000524183088B4201D38B00C01A524143080D
:1001F0008B4201D34B00C01A5241411A00D2014632
:10020000524110467047FFE701B5002000F006F8A4
:1002100002BDC0460029F7D076E770477047C04658
:1002200010B5040000F070FCFA218900FFF76CFFA4
:1002300000F060F8012000222100404200F020F888
:10024000002010BD10B5064A136810210B4313603F
:100250000020FFF7E5FF00F063FF002010BDC0465F
:1002600000200240024A1368013313607047C04601
:1002700028000020014B18687047C0462800002065
:1002800070B5002811DB8408134DC034A4006259F6
:1002900003231840C000FC331E008640B24389018E
:1002A0000B4083401343635170BDC0B20F22024024
:1002B000083A920806329200084BD3185D6803246E
:1002C0002040C000FF2214008440A54389010A4059
:1002D00082402A435A60E7E700E100E000ED00E0D9
:1002E0001F2318401E3B8340014A13607047C046DD
:1002F00000E100E001380A4B98420FD8094A5060EB
:100300000948036A1B021B0AC02109060B4303624A
:100310000023936007331360002070470120FCE73F
:10032000FFFFFF0010E000E000ED00E0042805D032
:10033000054A136804218B4313607047024A13680F
:1003400004210B431360F8E710E000E0704710B59C
:10035000FFF7FCFF10BD0000F0B5C64600B582B047
:10036000002338E0032600E00026AE4035003D4380
:100370000234A400554EA551554C25684246D4433D
:100380002E0026404A68D20302D5424615432E006D
:100390004F4D2E606D682E0026404A68920302D5AC
:1003A000424615432E004A4D6E60AD682E00264031
:1003B0004A68D20202D5424615432E00444DAE6033
:1003C000ED682C404A68920202D542462A43140046
:1003D0003F4AD46001330A681400DC4071D0012523
:1003E0009D402A409046F5D04C68022C01D0122C3A
:1003F0000ED1DC080834A400275807261E40B6009A
:100400000F22B24097430A69B24016003E4326507D
:1004100002685F0003242600BE40F6433240944643
:100420004A681440BC406246144304604C68621E33
:10043000012A03D9112C01D0122C10D18468344028
:10044000A446CC68BC406246144384604468AC4314
:100450004A681209012515409D4025434560C4683E
:1004600026408C68BC403443C4604A68D200B1D591
:10047000184DAE6901242643AE61AD692C4001944C
:10048000019C9C08A51CAD00104EAF5903251D40D2
:10049000AD000F26AE40B7439026F605B04200D11E
:1004A00062E70D4EB04208D00C4EB04207D00C4E61
:1004B000B04200D156E7052657E7012655E7022648
:1004C00053E702B004BC9046F0BDC04600000140B6
:1004D00000040140001002400004004800080048E9
:1004E000000C0048002A01D1816270478161FCE75D
:1004F00070B582B004000368DB0726D5AE4B5A689E
:100500000C231340042B18D0AB4B5A680C23134018
:10051000082B0ED06368012B3CD0002B51D1A64B89
:100520001A68A6490A401A601A68A5490A401A6062
:1005300036E0A14B5B68DB03ECD59F4B1B689B034C
:1005400003D56368002B00D1ECE123689B0773D5CA
:10055000994B5B680C221A425DD0974B5A680C236A
:100560001340082B53D0E368002B00D186E0924A59
:10057000136801210B431360FFF77CFE05008E4BCF
:100580001B689B0771D4FFF775FE401B0228F6D944
:100590000320CAE1884A116880235B020B43136081
:1005A0006368002B25D0FFF765FE0500824B1B68B2
:1005B0009B03CAD4FFF75EFE401B6428F6D90320D4
:1005C000B3E1052B09D07C4B1A687C490A401A60BC
:1005D0001A687B490A401A60E2E7774B1968802263
:1005E000D2020A431A601968802252020A431A6032
:1005F000D6E7FFF73FFE05006F4B1B689B03A4D5B2
:10060000FFF738FE401B6428F6D903208DE16A4BC2
:100610005B68DB03A7D4684B1B689B0704D5E368C2
:10062000012B01D0012080E163490B68F82293433C
:100630002269D20013430B6023681B0744D5E3698A
:10064000002B2ED05C4A536A01210B435362FFF703
:1006500011FE0500584B5B6A9B0735D4FFF70AFE75
:10066000401B0228F6D903205FE153490B68F822AA
:1006700093432269D20013430B60DDE74E4A1368AF
:1006800001218B431360FFF7F5FD05004A4B1B6802
:100690009B07D1D5FFF7EEFD401B0228F6D90320BA
:1006A00043E1454A536A01218B435362FFF7E2FD60
:1006B0000500414B5B6A9B0706D5FFF7DBFD401B3E
:1006C0000228F6D9032030E123685B0700D47FE0DD
:1006D000394BDB69DB001DD4374AD16980204005E6
:1006E0000143D161D36903400193019B0125354B3F
:1006F0001B68DB0510D5A368012B21D0002B36D158
:100700002D4B1A6A01218A431A621A6A03318A43FD
:100710001A621AE00025EAE72A4A116880235B0082
:100720000B431360FFF7A6FD0600264B1B68DB0595
:10073000E1D4FFF79FFD801B6428F6D90320F4E085
:100740001D4A136A01210B431362A368002B24D0B6
:10075000FFF790FD0600184B1B6A9B0736D4FFF786
:1007600089FD801B184B9842F5D90320DDE0052B4D
:1007700009D0114B1A6A01218A431A621A6A03319D
:100780008A431A62E1E70C4B1A6A04210A431A628F
:100790001A6A03390A431A62D7E7FFF76BFD0600AE
:1007A000054B1B6A9B0711D5FFF764FD801B064BA9
:1007B0009842F5D90320B8E000100240FFFFFEFF89
:1007C000FFFFFBFF0070004088130000012D33D0B5
:1007D0002368DB0610D56369012B33D0053351D173
:1007E000544A536B04218B435363536BF4318B4353
:1007F000A169C9000B435363236A002B00D193E026
:100800004C4A51680C220A40082A00D18FE0022B82
:100810004FD0484A136848490B401360FFF72AFD40
:100820000400444B1B689B017AD5FFF723FD001B96
:100830000228F6D9032078E03E4AD3693F490B40AD
:10084000D361C5E73B4B5A6B04210A435A635A6B89
:1008500003390A435A63FFF70DFD0500354B5B6B07
:100860009B0706D4FFF706FD401B0228F6D903209C
:100870005BE030494B6BF8229343A269D2001343EB
:100880004B63B9E72B4B5A6B04210A435A635A6BEB
:1008900003398A435A63FFF7EDFC0500254B5B6B78
:1008A0009B07A9D5FFF7E6FC401B0228F6D90320D9
:1008B0003BE0204A136820490B401360FFF7DAFC45
:1008C00005001C4B1B689B0106D5FFF7D3FC401BA2
:1008D0000228F6D9032028E0164BDA6A0F218A4352
:1008E000E16A0A43DA625A6815490A40A16A606AF5
:1008F00001430A435A601968802252040A431A606D
:10090000FFF7B8FC04000B4B1B689B0106D4FFF7F4
:10091000B1FC001B0228F6D9032006E0002004E009
:10092000002002E0012000E0002002B070BD0120A4
:10093000FBE7C04600100240FFFFFFFEFFFFFFEF96
:10094000FFFFC2FF30B589B004AA174B180032C8A8
:1009500032C2110002680A606A46103313CB13C218
:100960001B681360114B5A680C231340082B19D1D4
:10097000910C0733194004A8445C0C49C96A0B4028
:100980006946C95CD30308D463011B1B9801C01AD4
:10099000C0000419200209B030BD0548FFF7B4FBC0
:1009A0006043F8E70248F6E7E8120008001002404A
:1009B00000127A0070B505000C004D4B1A68012337
:1009C00013408B420BD24A490B68012293432343C5
:1009D0000B600B681A40A24201D0012070BD2B6849
:1009E0009B0706D5434A5368F0218B43A9680B4304
:1009F00053602B68DB074BD56B68012B20D0022B93
:100A000024D03C4A126892076FD53A494A680320BD
:100A1000824313434B60FFF72DFC06006B68012BEC
:100A20001AD0022B26D0334B5B680C221A422FD0EF
:100A3000FFF720FC801B304B9842F4D90320CDE710
:100A40002C4A12689203E0D40120C7E7294A1268B1
:100A50009201DAD40120C1E7264B5A680C231340D7
:100A6000042B15D0FFF706FC801B234B9842F3D9CB
:100A70000320B3E71F4B5A680C231340082B07D001
:100A8000FFF7F8FB801B1C4B9842F3D90320A5E726
:100A9000174B1A6801231340A3420BD914490B6862
:100AA0000122934323430B600B681A40A24201D0FA
:100AB000012093E72B685B0706D50E4A53680F4960
:100AC0000B40E9680B435360FFF73CFF094B5A6842
:100AD00012090F2313400A4AD35CD840094B18600F
:100AE0000020FFF79DFB002078E7012076E7C04655
:100AF000002002400010024088130000FFF8FFFFB2
:100B00000813000804000020014B18687047C04615
:100B10000400002030B5036A046A0125AC43046276
:100B20008469EF35AC43120122430A24A3431943DD
:100B30008261016230BD000030B5036A1024A34316
:100B400003628469036A054D2C4012032243A024EA
:100B5000A343090119438261016230BDFF0FFFFF0A
:100B600083687022934307221143194381607047C1
:100B700010B53D22022383540468236801210B43EE
:100B800023608154002010BD704770477047704744
:100B900010B5040003681A6992070FD5DA68920746
:100BA0000CD5032252421A610123037703689B6923
:100BB0009B0763D0FFF7E9FF0023237723681A69B7
:100BC000520712D5DA6852070FD5052252421A6130
:100BD0000223237723689A69C0239B001A4253D0CB
:100BE0002000FFF7D2FF0023237723681A6912073A
:100BF00010D5DA6812070DD5092252421A61042372
:100C000023772368DB699B0745D02000FFF7BDFFF2
:100C10000023237723681A69D20612D5DA68D20630
:100C20000FD5112252421A61082323772368DA690B
:100C3000C0239B001A4235D02000FFF7A6FF0023F7
:100C4000237723681A69D20702D5DA68D20730D42D
:100C500023681A69120602D5DA68120630D42368AE
:100C60001A69520602D5DA68520630D423681A6926
:100C7000920602D5DA68920630D410BDFFF784FFE1
:100C80002000FFF783FF97E72000FFF77DFF20009C
:100C9000FFF77CFFA7E72000FFF776FF2000FFF7B4
:100CA00075FFB5E72000FFF76FFF2000FFF76EFF2D
:100CB000C5E7022252421A61200000F07BF9C7E723
:100CC000812252421A61200000F03BF9C7E741221D
:100CD00052421A612000FFF75AFFC7E72122524211
:100CE0001A61200000F02CF9C7E700000368214AD0
:100CF000904206D08022D205904202D01E4A9042F5
:100D000003D1702293434A6813431A4A904212D087
:100D10008022D20590420ED0174A90420BD0174A3B
:100D2000904208D0164A904205D0164A904202D00E
:100D3000154A904203D1154A1340CA6813438022D2
:100D400093434A69134303608B68C3620B688362F1
:100D5000084B984208D00A4B984205D0094B98425C
:100D600002D0094B984201D10B690363012343610F
:100D70007047C046002C01400004004000200040A5
:100D8000004001400044014000480140FFFCFFFFDB
:100D900070B5041E14D03D23C35C002B0AD03D2542
:100DA00002236355211D2068FFF7A0FF012363552F
:100DB000002070BD3C330022C25400F0DBF9EEE7A6
:100DC0000120F6E730B58468034D2C401B021A431E
:100DD00011432143816030BDFF00FFFF10B50400C7
:100DE0003C23C35C012B00D17FE03C230122C25491
:100DF00001330132C254026893683D480340936056
:100E00000B68402B5DD010D9702B43D020D8502BCD
:100E10004DD0602B36D1CA6849682068FFF78CFE38
:100E200060212068FFF79CFE2CE0102B53D008D9DE
:100E3000202B55D0302B25D130212068FFF790FE94
:100E400020E0002B1ED100212068FFF789FE19E069
:100E500080225201934210D080229201934211D1FC
:100E6000CB684A6889682068FFF7ACFF2268916800
:100E70008023DB010B43936004E022689368072121
:100E80008B4393603D230122E254013B0022E25454
:100E9000002010BDCB684A6889682068FFF792FF80
:100EA0002268936877218B430B439360EAE7CA6813
:100EB00049682068FFF72EFE50212068FFF750FE9A
:100EC000E0E7CA6849682068FFF724FE40212068EF
:100ED000FFF746FED6E710212068FFF741FED1E775
:100EE00020212068FFF73CFECCE70220D1E7C04676
:100EF0008800FFFFF0B53C23C35C012B1ED03C22D1
:100F0000012585543D240223035506687368702724
:100F1000BB437360066873680F683B437360066881
:100F2000B3688027BB43B3600668B36849680B4366
:100F3000B3600555002383540020F0BD0220FCE778
:100F400070477047F0B589B0174B5969802080020F
:100F5000014359615A6902400192019A5A698021FC
:100F600009030A435A615B690B400293029BC02745
:100F7000BF000E4D002239002800FFF7B3FA01260A
:100F800003960B4B049300240594902003A9C005FD
:100F9000FFF7E2F9039704960594069403A9280045
:100FA000FFF7DAF909B0F0BD001002400008004870
:100FB0000000121010B5134B1B68002B0FD0013B23
:100FC000104A13600F4B1A68FA235B009A4211D043
:100FD0008021012289000C48FFF784FA10BD80218E
:100FE000012289000848FFF77DFA084B1A68054B73
:100FF0001A60E7E78021002289000348FFF772FAB0
:10100000E6E7C04624000020000800480000002059
:10101000FEE7000000B587B017488023DB050360BA
:10102000164B4360002383600122C2600361836129
:10103000FFF7AEFE002813D180235B01029302A9C3
:101040000D48FFF7CBFE00280ED10023009301933B
:1010500069460948FFF74EFF002809D107B000BDD7
:10106000D4210748FFF7D4FFDA210548FFF7D0FF66
:10107000E1210348FFF7CCFF2C0000207FBB0000DC
:101080002013000800B591B00223049301220792B7
:101090000F3208920C9300230D93A02292030E921C
:1010A0000F9304A8FFF724FA00281FD10723009309
:1010B000053B019300230293039301216846FFF748
:1010C00079FC002816D1FFF71FFDFA218900FFF7F0
:1010D0001BF8FFF70FF90420FFF728F90120002281
:1010E00000214042FFF7CCF811B000BDA921034810
:1010F000FFF78EFFB6210148FFF78AFF2013000893
:1011000010B5FFF79FF8FFF7BDFFFFF71BFFFFF7D5
:1011100081FF0248FFF72CFDFEE7C0462C000020AF
:1011200000B583B0124B9969012211439961996905
:101130000A400092009ADA69802149050A43DA617F
:10114000DB690B400193019B0520002200214042F6
:10115000FFF796F80220002200214042FFF790F8A6
:101160000120002200214042FFF78AF803B000BDB1
:101170000010024000B583B002688023DB059A426C
:1011800001D003B000BD094AD16901231943D161DF
:10119000D26913400193019B002200210F20FFF729
:1011A0006FF80F20FFF79CF8EBE7C04600100240F5
:1011B0007047FEE77047704710B5FFF753F8FFF729
:1011C000C6F810BD10B50248FFF7E2FC10BDC046DE
:1011D0002C000020114B1A6801210A431A605A683A
:1011E0000F4802405A601A680E4802401A601A6896
:1011F0000D4802401A605A680C4802405A60DA6A88
:101200000F208243DA621A6B094802401A635A6B54
:101210008A435A6300229A607047C0460010024019
:101220000CB8FFF8FFFFF6FEFFFFFBFFFFFFC0FF5C
:10123000ACFEFFFF0D4885460D480E490E4A0023BF
:1012400002E0D458C4500433C4188C42F9D30B4A7A
:101250000B4C002301E013600432A242FBD3FFF7E2
:10126000B9FF00F011F8FFF74BFFFEE70020002068
:1012700000000020080000203813000808000020AB
:101280006C000020FEE7000070B500260C4D0D4CF0
:10129000641BA410A64209D1002600F019F80A4DDB
:1012A0000A4C641BA410A64205D170BDB300EB58D4
:1012B00098470136EEE7B300EB5898470136F2E75E
:1012C00030130008301300083013000834130008EE
:1012D000F8B5C046F8BC08BC9E467047F8B5C04695
:0812E000F8BC08BC9E467047F3
:1012E80002030405060708090A0B0C0D0E0F10105F
:1012F8000102030405060708090A0B0C0D0E0F105E
:1013080000000000000000000102030406070809AD
:1013180000000000010203042E2E2F5372632F6D6C
:0813280061696E2E63000000F4
:04133000E9000008C8
:04133400C1000008EC
:08133800E803000000127A0036
:0400000508001235A8
:00000001FF
